:100000000C9453000C947B000C947B000C947B00AC
:100010000C947B000C947B000C947B000C947B0074
:100020000C947B000C947B000C947B000C947B0064
:100030000C947B000C947B000C947B000C947B0054
:100040000C9458020C947B000C9426020C94000231
:100050000C947B000C947B000C947B000C947B0034
:100060000C947B000C947B0000000000250028000D
:100070002B0000000000240027002A0004040404D0
:100080000404040402020202020203030303030342
:10009000010204081020408001020408102001021F
:1000A00004081020D40411241FBECFEFD8E0DEBF17
:1000B000CDBF11E0A0E0B1E0EEE4FFE002C00590AA
:1000C0000D92AC35B107D9F722E0ACE5B1E001C043
:1000D0001D92A230B207E1F710E0C3E5D0E004C002
:1000E0002197FE010E949F07C235D107C9F70E94E0
:1000F000A2020C94A5070C940000AF92BF92CF927D
:10010000DF92EF92FF920F931F93CF93DF936C01D7
:100110007B018B01040F151FEB015E01AE18BF08B8
:10012000C017D10759F06991D601ED91FC9101906A
:10013000F081E02DC6010995892B79F7C501DF9182
:10014000CF911F910F91FF90EF90DF90CF90BF90D4
:10015000AF900895FC01538D448D252F30E0842FFE
:1001600090E0821B930B541710F0CF9608950197DF
:100170000895FC01918D828D981761F0A28DAE0FCC
:10018000BF2FB11D5D968C91928D9F5F9F73928F53
:1001900090E008958FEF9FEF0895FC01918D828D7F
:1001A000981731F0828DE80FF11D858D90E008954C
:1001B0008FEF9FEF0895FC01918D228D892F90E0A4
:1001C000805C9F4F821B91098F739927089585E664
:1001D00091E00E94DB0021E0892B09F420E0822FCE
:1001E000089580E090E0892B29F00E94E7008111BA
:1001F0000C9400000895FC01A48DA80FB92FB11D27
:10020000A35ABF4F2C91848D90E001968F7399274C
:10021000848FA689B7892C93A089B1898C9183702A
:1002200080648C93938D848D981306C00288F38923
:10023000E02D80818F7D80830895EF92FF920F9350
:100240001F93CF93DF93EC0181E0888F9B8D8C8D82
:1002500098131AC0E889F989808185FF15C09FB776
:10026000F894EE89FF896083E889F9898081837039
:10027000806480839FBF81E090E0DF91CF911F91E8
:100280000F91FF90EF900895F62E0B8D10E00F5F09
:100290001F4F0F731127E02E8C8D8E110CC00FB6DF
:1002A00007FCFACFE889F989808185FFF5CFCE0177
:1002B0000E94FB00F1CFEB8DEC0FFD2FF11DE35AF7
:1002C000FF4FF0829FB7F8940B8FEA89FB898081FA
:1002D0008062CFCFCF93DF93EC01888D8823B9F074
:1002E000AA89BB89E889F9898C9185FD03C0808141
:1002F00086FD0DC00FB607FCF7CF8C9185FFF2CFBE
:10030000808185FFEDCFCE010E94FB00E9CFDF9118
:10031000CF9108953FB7F894809161019091620167
:10032000A0916301B091640126B5A89B05C02F3F41
:1003300019F00196A11DB11D3FBFBA2FA92F982F0B
:100340008827BC01CD01620F711D811D911D42E006
:10035000660F771F881F991F4A95D1F70895FC01F2
:1003600001900020E9F73197AF01481B590BBC0100
:1003700085E691E00C947D008F929F92AF92BF92A0
:100380000F931F93CF93DF93CDB7DEB7A1970FB62F
:10039000F894DEBF0FBECDBF19A2423008F44AE088
:1003A0008E010F5D1F4F842E912CB12CA12CA50125
:1003B00094010E942B05E62FB901CA01EA30F4F43A
:1003C000E05DD801EE938D01232B242B252B79F7AB
:1003D00090E080E0109719F0CD010E94AF01A19646
:1003E0000FB6F894DEBF0FBECDBFDF91CF911F9146
:1003F0000F91BF90AF909F908F900895E95CE1CFEF
:100400001F920F920FB60F9211242F933F934F9389
:100410005F936F937F938F939F93AF93BF93EF936C
:10042000FF9385E691E00E94FB00FF91EF91BF9161
:10043000AF919F918F917F916F915F914F913F917C
:100440002F910F900FBE0F901F9018951F920F9233
:100450000FB60F9211242F938F939F93EF93FF93D7
:10046000E0917501F09176018081E0917B01F0913E
:100470007C0182FD1BC0908180917E018F5F8F7314
:1004800020917F01821741F0E0917E01F0E0EB596D
:10049000FE4F958F80937E01FF91EF919F918F91F9
:1004A0002F910F900FBE0F901F9018958081F4CF61
:1004B0001F920F920FB60F9211242F933F938F9399
:1004C0009F93AF93BF9380915D0190915E01A09146
:1004D0005F01B091600130915C0123E0230F2D3763
:1004E00058F50196A11DB11D20935C0180935D011B
:1004F00090935E01A0935F01B093600180916101D0
:1005000090916201A0916301B09164010196A11DD7
:10051000B11D8093610190936201A0936301B09338
:100520006401BF91AF919F918F913F912F910F9057
:100530000FBE0F901F90189526E8230F0296A11D5D
:10054000B11DD2CFCF93DF93CDB7DEB76C970FB687
:10055000F894DEBF0FBECDBF789484B5826084BDB1
:1005600084B5816084BD85B5826085BD85B58160B7
:1005700085BD80916E00816080936E001092810035
:1005800080918100826080938100809181008160F0
:1005900080938100809180008160809380008091B1
:1005A000B10084608093B1008091B000816080933D
:1005B000B00080917A00846080937A0080917A0004
:1005C000826080937A0080917A00816080937A00C3
:1005D00080917A00806880937A001092C100E09147
:1005E0007501F091760182E08083E0917101F091D4
:1005F00072011082E0917301F09174018FEC80839D
:1006000010927D01E0917901F0917A0186E080837A
:10061000E0917701F0917801808180618083E091A1
:100620007701F0917801808188608083E091770183
:10063000F0917801808180688083E0917701F0916A
:10064000780180818F7D80838AE391E09E8B8D8B02
:10065000AD89BE898D919D91BE8BAD8B9927FC0193
:10066000E057FF4F249184589F4FFC0184918823C9
:10067000C9F090E0880F991FFC01EE58FF4FA5913B
:10068000B491FC01E859FF4F459154919FB7F894FC
:100690008C91E22FE0958E238C93DA018C91E823E4
:1006A000EC939FBFED89FE89E454F14089F686E220
:1006B00091E0988F8F8BA2E1B1E0BC8FAB8F8E0160
:1006C0000F5F1F4F1A8F098F9AE3292E91E0392E61
:1006D000F1018081F2E02F0E311C8E3008F08E5037
:1006E0008770806480937C0080917A00806480931E
:1006F0007A0080917A0086FDFCCFA0907800B090BF
:100700007900AF89B88D4D905D906D907D90B88FD8
:10071000AF8BEB8DFC8D6191719181919191FC8FEB
:10072000EB8F0E9440066B017C01B501072E000C87
:10073000880B990B0E94780620E030E040EA50E4F4
:100740000E942D0720E030EC4FE754E40E94CE05D4
:100750009B01AC0160E070E080EA90E40E94CE056D
:1007600020E030E040E85FE30E945C0520E038E9EB
:1007700047E357E40E942D070E9440069B01AC010D
:100780002C193D094E095F09AAE5B0E00E94200539
:100790004B015C01C301B2010E9440069B01AC0108
:1007A0002C193D094E095F09C501B4010E940105DC
:1007B000CA01B9010E947806A98DBA8D6D937D9307
:1007C0008D939D93BA8FA98FED89FE89E215F3056C
:1007D00009F07ECF84E491E00E94AF015801F4E17A
:1007E000AF0EB11CD801CD90DD90ED90FD908D0144
:1007F000A7019601C701B6010E949A07882309F450
:1008000041C08DE491E00E94AF018BE491E00E9431
:10081000AF01A016B10631F789E591E00E94AF0162
:100820000E948A016B017C0184EF882E99249394A5
:10083000A12CB12C0E948A016C197D098E099F0997
:10084000683E734081059105A8F3B1E08B1A9108C9
:10085000A108B108E8EECE0EE3E0DE1EE11CF11CBB
:1008600081149104A104B10429F780E090E0892B60
:1008700009F41DCF0E94E700882309F418CF0E94D5
:10088000000015CF26013701E89477F82FEF3FEFEE
:100890004FE75FE7C301B2010E949A0781110DC0C3
:1008A0002FEF3FEF4FE75FE7C301B2010E94C90599
:1008B00018161CF481E591E0A6CF2FEF3FEF4FE72C
:1008C0005FE4C701B6010E94280718161CF485E5ED
:1008D00091E099CF2FEF3FEF4FE75FECC701B601F3
:1008E0000E94C90587FDF3CF20E030E0A901C701D0
:1008F000B6010E94C90587FF09C06DE285E691E057
:100900000E941D01F7FAF094F7F8F0942AE037ED11
:1009100043EA5BE3C701B6010E945D052B013C0180
:100920000E9447066B017C010E9476069B01AC0188
:10093000C301B2010E945C052B013C014AE0C701E2
:10094000B6010E94BC016EE285E691E00E941D01A5
:1009500020E030E040E251E4C301B2010E942D07E3
:100960002B013C010E9447066B01F12CE12C4AE06F
:10097000C701B6010E94BC01C701B6010E947606FC
:100980009B01AC01C301B2010E945C0520E030E094
:1009900040E251E40E942D070E94470690E080E06B
:1009A0004AE00E94BC0131CFE5E6F1E013821282F9
:1009B00088EE93E0A0E0B0E084839583A683B783BC
:1009C00084E091E09183808385EC90E09587848733
:1009D00084EC90E09787868780EC90E0918B808B09
:1009E00081EC90E0938B828B82EC90E0958B848BF2
:1009F00086EC90E0978B868B118E128E138E148E60
:100A00000895052E97FB1EF400940E94180557FDCB
:100A100007D00E942B0507FC03D04EF40C94180558
:100A200050954095309521953F4F4F4F5F4F08951A
:100A300090958095709561957F4F8F4F9F4F08954A
:100A40000E944D05A59F900DB49F900DA49F800D11
:100A5000911D11240895A1E21A2EAA1BBB1BFD01B2
:100A60000DC0AA1FBB1FEE1FFF1FA217B307E4078D
:100A7000F50720F0A21BB30BE40BF50B661F771FE5
:100A8000881F991F1A9469F76095709580959095C5
:100A90009B01AC01BD01CF010895A29FB001B39F9E
:100AA000C001A39F700D811D1124911DB29F700D77
:100AB000811D1124911D08955058BB27AA270E941B
:100AC00074050C94EE060E94E00638F00E94E706DA
:100AD00020F039F49F3F19F426F40C94DD060EF44F
:100AE000E095E7FB0C94D706E92F0E94FF0658F328
:100AF000BA17620773078407950720F079F4A6F503
:100B00000C9421070EF4E0950B2EBA2FA02D0B01AB
:100B1000B90190010C01CA01A0011124FF27591B42
:100B200099F0593F50F4503E68F11A16F040A22F48
:100B3000232F342F4427585FF3CF469537952795B9
:100B4000A795F0405395C9F77EF41F16BA0B620BB8
:100B5000730B840BBAF09150A1F0FF0FBB1F661FFF
:100B6000771F881FC2F70EC0BA0F621F731F841F42
:100B700048F4879577956795B795F7959E3F08F068
:100B8000B0CF9395880F08F09927EE0F979587952A
:100B900008950E94B30608F481E008950E94E205DA
:100BA0000C94EE060E94E70658F00E94E00640F022
:100BB00029F45F3F29F00C94D70651110C942207B9
:100BC0000C94DD060E94FF0668F39923B1F35523C8
:100BD00091F3951B550BBB27AA2762177307840750
:100BE00038F09F5F5F4F220F331F441FAA1FA9F3E6
:100BF00035D00E2E3AF0E0E832D091505040E695D4
:100C0000001CCAF72BD0FE2F29D0660F771F881F34
:100C1000BB1F261737074807AB07B0E809F0BB0B27
:100C2000802DBF01FF2793585F4F3AF09E3F51053B
:100C300078F00C94D7060C9422075F3FE4F3983EBB
:100C4000D4F3869577956795B795F7959F5FC9F724
:100C5000880F911D9695879597F90895E1E0660FA5
:100C6000771F881FBB1F621773078407BA0720F01E
:100C7000621B730B840BBA0BEE1F88F7E095089587
:100C80000E9447066894B1110C94220708950E94AF
:100C9000070788F09F5798F0B92F9927B751B0F000
:100CA000E1F0660F771F881F991F1AF0BA95C9F7F0
:100CB00014C0B13091F00E942107B1E008950C9466
:100CC0002107672F782F8827B85F39F0B93FCCF319
:100CD000869577956795B395D9F73EF4909580956D
:100CE000709561957F4F8F4F9F4F0895E89409C08D
:100CF00097FB3EF490958095709561957F4F8F4F4F
:100D00009F4F9923A9F0F92F96E9BB279395F69564
:100D1000879577956795B795F111F8CFFAF4BB0FE2
:100D200011F460FF1BC06F5F7F4F8F4F9F4F16C046
:100D3000882311F096E911C0772321F09EE8872FD0
:100D4000762F05C0662371F096E8862F70E060E08C
:100D50002AF09A95660F771F881FDAF7880F969505
:100D6000879597F90895990F0008550FAA0BE0E8A9
:100D7000FEEF16161706E807F907C0F0121613065D
:100D8000E407F50798F0621B730B840B950B39F49D
:100D90000A2661F0232B242B252B21F408950A2603
:100DA00009F4A140A6958FEF811D811D089597F943
:100DB0009F6780E870E060E008959FEF80EC089501
:100DC00000240A941616170618060906089500242A
:100DD0000A9412161306140605060895092E0394A4
:100DE000000C11F4882352F0BB0F40F4BF2B11F418
:100DF00060FF04C06F5F7F4F8F4F9F4F089557FD77
:100E00009058440F551F59F05F3F71F04795880F78
:100E100097FB991F61F09F3F79F08795089512160F
:100E200013061406551FF2CF4695F1DF08C01616BB
:100E300017061806991FF1CF86957105610508946C
:100E40000895E894BB2766277727CB0197F9089583
:100E50000E94B30608F48FEF08950E9440070C9497
:100E6000EE060E94E00638F00E94E70620F0952387
:100E700011F00C94D7060C94DD0611240C94220773
:100E80000E94FF0670F3959FC1F3950F50E0551F28
:100E9000629FF001729FBB27F00DB11D639FAA27CF
:100EA000F00DB11DAA1F649F6627B00DA11D661F1E
:100EB000829F2227B00DA11D621F739FB00DA11D3F
:100EC000621F839FA00D611D221F749F3327A00DF9
:100ED000611D231F849F600D211D822F762F6A2F95
:100EE00011249F5750409AF0F1F088234AF0EE0FFA
:100EF000FF1FBB1F661F771F881F91505040A9F727
:100F00009E3F510580F00C94D7060C9422075F3F5A
:100F1000E4F3983ED4F3869577956795B795F79562
:100F2000E7959F5FC1F7FE2B880F911D96958795DA
:100F300097F908950E94B306880B990B0895EE0F58
:0E0F4000FF1F0590F491E02D0994F894FFCF67
:100F4E00000000001D017D00AA006A01DB00B9004F
:100F5E00CD000050C3460050C3460050C34600505B
:100F6E00C3460050C3460050C3470050C34700500D
:100F7E00C3470050C3470050C3470E000F00100078
:100F8E0011001200416E676C65733A20006E616E3F
:0C0F9E0000696E66006F7666000D0A00A8
:00000001FF
