:100000000C9453000C947B000C947B000C947B00AC
:100010000C947B000C947B000C947B000C947B0074
:100020000C947B000C947B000C947B000C947B0064
:100030000C947B000C947B000C947B000C947B0054
:100040000C9414020C947B000C94E2010C94BC01FF
:100050000C947B000C947B000C947B000C947B0034
:100060000C947B000C947B0000000000250028000D
:100070002B0000000000240027002A0004040404D0
:100080000404040402020202020203030303030342
:10009000010204081020408001020408102001021F
:1000A00004081020C80311241FBECFEFD8E0DEBF24
:1000B000CDBF11E0A0E0B1E0EEE3F8E002C00590B2
:1000C0000D92A233B107D9F721E0A2E3B1E001C05C
:1000D0001D92A23EB207E1F710E0C3E5D0E004C0F4
:1000E0002197FE010E941704C235D107C9F70E946B
:1000F0005E020C941D040C940000AF92BF92CF924C
:10010000DF92EF92FF920F931F93CF93DF936C01D7
:100110007B018B01040F151FEB015E01AE18BF08B8
:10012000C017D10759F06991D601ED91FC9101906A
:10013000F081E02DC6010995892B79F7C501DF9182
:10014000CF911F910F91FF90EF90DF90CF90BF90D4
:10015000AF900895FC01538D448D252F30E0842FFE
:1001600090E0821B930B541710F0CF9608950197DF
:100170000895FC01918D828D981761F0A28DAE0FCC
:10018000BF2FB11D5D968C91928D9F5F9F73928F53
:1001900090E008958FEF9FEF0895FC01918D828D7F
:1001A000981731F0828DE80FF11D858D90E008954C
:1001B0008FEF9FEF0895FC01918D228D892F90E0A4
:1001C000805C9F4F821B91098F739927089585E466
:1001D00091E00E94DB0021E0892B09F420E0822FCE
:1001E000089580E090E0892B29F00E94E7008111BA
:1001F0000C9400000895FC01A48DA80FB92FB11D27
:10020000A35ABF4F2C91848D90E001968F7399274C
:10021000848FA689B7892C93A089B1898C9183702A
:1002200080648C93938D848D981306C00288F38923
:10023000E02D80818F7D80830895EF92FF920F9350
:100240001F93CF93DF93EC0181E0888F9B8D8C8D82
:1002500098131AC0E889F989808185FF15C09FB776
:10026000F894EE89FF896083E889F9898081837039
:10027000806480839FBF81E090E0DF91CF911F91E8
:100280000F91FF90EF900895F62E0B8D10E00F5F09
:100290001F4F0F731127E02E8C8D8E110CC00FB6DF
:1002A00007FCFACFE889F989808185FFF5CFCE0177
:1002B0000E94FB00F1CFEB8DEC0FFD2FF11DE35AF7
:1002C000FF4FF0829FB7F8940B8FEA89FB898081FA
:1002D0008062CFCFCF93DF93EC01888D8823B9F074
:1002E000AA89BB89E889F9898C9185FD03C0808141
:1002F00086FD0DC00FB607FCF7CF8C9185FFF2CFBE
:10030000808185FFEDCFCE010E94FB00E9CFDF9118
:10031000CF9108953FB7F8948091370190913801BB
:10032000A0913901B0913A0126B5A89B05C02F3F95
:1003300019F00196A11DB11D3FBFBA2FA92F982F0B
:100340008827BC01CD01620F711D811D911D42E006
:10035000660F771F881F991F4A95D1F70895FC01F2
:1003600001900020E9F73197AF01481B590BBC0100
:1003700085E491E00C947D001F920F920FB60F92CE
:1003800011242F933F934F935F936F937F938F939A
:100390009F93AF93BF93EF93FF9385E491E00E9407
:1003A000FB00FF91EF91BF91AF919F918F917F9152
:1003B0006F915F914F913F912F910F900FBE0F90D2
:1003C0001F9018951F920F920FB60F9211242F9322
:1003D0008F939F93EF93FF93E0915501F091560116
:1003E0008081E0915B01F0915C0182FD1BC09081F6
:1003F00080915E018F5F8F7320915F01821741F0C2
:10040000E0915E01F0E0EB5BFE4F958F80935E0123
:10041000FF91EF919F918F912F910F900FBE0F90B1
:100420001F9018958081F4CF1F920F920FB60F92F4
:1004300011242F933F938F939F93AF93BF938091FA
:10044000330190913401A0913501B0913601309182
:10045000320123E0230F2D3758F50196A11DB11D60
:10046000209332018093330190933401A09335019E
:10047000B09336018091370190913801A0913901F4
:10048000B0913A010196A11DB11D8093370190935F
:100490003801A0933901B0933A01BF91AF919F9178
:1004A0008F913F912F910F900FBE0F901F90189535
:1004B00026E8230F0296A11DB11DD2CFCF93DF9363
:1004C000CDB7DEB7A1970FB6F894DEBF0FBECDBF94
:1004D000789484B5826084BD84B5816084BD85B51F
:1004E000826085BD85B5816085BD80916E0081602B
:1004F00080936E00109281008091810082608093D1
:1005000081008091810081608093810080918000D2
:100510008160809380008091B10084608093B100FD
:100520008091B00081608093B00080917A008460F7
:1005300080937A0080917A00826080937A00809123
:100540007A00816080937A0080917A00806880933D
:100550007A001092C100E0915501F091560182E0BD
:100560008083E0915101F09152011082E09153019A
:10057000F09154018FEC808310925D01E09159015C
:10058000F0915A0186E08083E0915701F091580183
:10059000808180618083E0915701F09158018081D2
:1005A00088608083E0915701F091580180818068D4
:1005B0008083E0915701F091580180818F7D808385
:1005C00002E111E0D8018D919D918D019927FC01E7
:1005D000E057FF4F249184589F4FFC01849188235A
:1005E000C9F090E0880F991FFC01EE58FF4FA591CC
:1005F000B491FC01E859FF4F459154919FB7F8948D
:100600008C91E22FE0958E238C93DA018C91E82374
:10061000EC939FBFB1E00C311B07A1F62AE0822EBC
:10062000912CA12CB12C30E0232E30E0332E9BE313
:10063000C92E91E0D92ED601E2E1F1E08081329617
:100640008E3008F08E508770806480937C0080919B
:100650007A00806480937A0080917A0086FDFCCFD6
:1006600090917800809179008927982789278D9328
:100670009D930E171F0711F78CE191E00E94AF01C7
:10068000F601419051906F01052C000C6608770827
:1006900077FE68C06DE285E491E00E941D0122278B
:1006A0003327A901241935094609570919A2CE0192
:1006B00081967C01CA01B901A50194010E94F5034C
:1006C000605DD7016E937D0121153105410551050E
:1006D00089F7E114F10419F0C7010E94AF0160E24B
:1006E00085E491E00E941D018CE291E00E94AF013F
:1006F000E5E4F1E0EC15FD0519F68EE291E00E94CB
:10070000AF010E948A016B017C0184EF482E5524C1
:100710005394612C712C0E948A016C197D098E09F9
:100720009F09683E734081059105A8F3F1E04F1AD7
:1007300051086108710828EEC20E23E0D21EE11CA8
:10074000F11C411451046104710429F7211431048E
:1007500009F46DCF0E94E700882309F468CF0E9456
:10076000000065CFA301920119A2FE01B1967F019D
:10077000CA01B901A50194010E94F503605DD7018A
:100780006E937D01211531054105510589F7A1CFF2
:10079000E5E4F1E01382128288EE93E0A0E0B0E09D
:1007A00084839583A683B78384E091E091838083DB
:1007B00085EC90E09587848784EC90E09787868726
:1007C00080EC90E0918B808B81EC90E0938B828B1E
:1007D00082EC90E0958B848B86EC90E0978B868BF7
:1007E000118E128E138E148E0895A1E21A2EAA1B5A
:1007F000BB1BFD010DC0AA1FBB1FEE1FFF1FA217D1
:10080000B307E407F50720F0A21BB30BE40BF50BCD
:10081000661F771F881F991F1A9469F76095709556
:10082000809590959B01AC01BD01CF010895EE0F1D
:0E083000FF1F0590F491E02D0994F894FFCF7E
:10083E00000000001D017D00AA006A01DB00B90066
:10084E00CD000E000F00100011001200C389636866
:10085E00616E74696C6C6F6E203A200009000D0A8F
:02086E00000088
:00000001FF
