:100000000C9458000C9480000C9480000C94800098
:100010000C9480000C9480000C9480000C94800060
:100020000C9480000C9480000C9480000C94800050
:100030000C9480000C9480000C9480000C94800040
:100040000C94C3030C9480000C9491030C946B03E8
:100050000C9480000C9480000C9480000C94800020
:100060000C940D040C948000000000002500280072
:100070002B00040404040404040402020202020229
:10008000030303030303010204081020408001025C
:1000900004081020010204081020000000080002DB
:1000A0000100000304070000000000000000250517
:1000B00011241FBECFEFD8E0DEBFCDBF11E0A0E01E
:1000C000B1E0EAE3FBE102C005900D92A437B1076D
:1000D000D9F722E0A4E7B1E001C01D92AB3EB20720
:1000E000E1F710E0C8E5D0E004C02197FE010E94CE
:1000F000BD0AC735D107C9F70E945E050C949B0D58
:100100000C94000090E0FC01E656FF4F2491FC01A6
:10011000EA57FF4F3491FC01EE58FF4FE491EE2374
:10012000B1F0222339F02330E9F090F4213001F1CD
:10013000223011F1F0E0EE0FFF1FE859FF4FA591BB
:10014000B4918FB7F894EC913E2B3C938FBF0895F8
:100150002730A9F02830C9F0243061F78091800061
:100160008F7D03C0809180008F7780938000E2CFE5
:1001700084B58F7784BDDECF84B58F7DFBCF809132
:10018000B0008F778093B000D5CF8091B0008F7D85
:10019000F9CF90914102809140022FEF3FEF9817E5
:1001A00048F4E92FF0E0E05EFD4F208130E09F5FF2
:1001B00090934102C90108959091410280914002BB
:1001C0002FEF3FEF981748F4E92FF0E0E05EFD4F86
:1001D000208130E09F5F90934102C9010895982FDC
:1001E00020911F0281E0213208F03FC08091FB0185
:1001F0008111FCCF80911E0232E03093FB0190937D
:10020000FA019FEF9093F9011092F8012093F70102
:10021000AEEFB1E0E7EDF1E090E029132DC01092D0
:10022000D6019091D601880F892B8093D6018091B9
:10023000D501813029F51092D5018091D6018093A6
:10024000BB0085EC8093BC008091FB018230E1F320
:100250008091F9018F3FB1F08091F9018032A1F0D6
:100260008091F901803391F084E01092FD011092A9
:100270001F021092FC0108953D9131939F5FCDCFF5
:1002800085EEE0CF80E0F1CF82E0EFCF83E0EDCFED
:10029000AF92BF92CF92DF92EF92FF920F931F9394
:1002A000CF93DF936C017B018B01040F151FEB01D2
:1002B0005E01AE18BF08C017D10759F06991D60189
:1002C000ED91FC910190F081E02DC6010995892BFB
:1002D00079F7C501DF91CF911F910F91FF90EF90BA
:1002E000DF90CF90BF90AF900895FC01538D448D67
:1002F000252F30E0842F90E0821B930B541710F0D1
:10030000CF96089501970895FC01918D828D9817DD
:1003100061F0A28DAE0FBF2FB11D5D968C91928DB5
:100320009F5F9F73928F90E008958FEF9FEF0895E6
:10033000FC01918D828D981731F0828DE80FF11DAF
:10034000858D90E008958FEF9FEF0895FC01918DCA
:10035000228D892F90E0805C9F4F821B91098F73C3
:100360009927089582E492E00E94A60121E0892B5A
:1003700009F420E0822F089580E090E0892B29F095
:100380000E94B20181110C9400000895FC01A48D1B
:10039000A80FB92FB11DA35ABF4F2C91848D90E0A7
:1003A00001968F739927848FA689B7892C93A0898A
:1003B000B1898C91837080648C93938D848D981314
:1003C00006C00288F389E02D80818F7D80830895A7
:1003D000EF92FF920F931F93CF93DF93EC0181E095
:1003E000888F9B8D8C8D98131AC0E889F98980813C
:1003F00085FF15C09FB7F894EE89FF896083E8896F
:10040000F98980818370806480839FBF81E090E060
:10041000DF91CF911F910F91FF90EF900895F62EED
:100420000B8D10E00F5F1F4F0F731127E02E8C8D87
:100430008E110CC00FB607FCFACFE889F9898081CC
:1004400085FFF5CFCE010E94C601F1CFEB8DEC0FF9
:10045000FD2FF11DE35AFF4FF0829FB7F8940B8FE9
:10046000EA89FB8980818062CFCFCF93DF93EC0153
:10047000888D8823B9F0AA89BB89E889F9898C918C
:1004800085FD03C0808186FD0DC00FB607FCF7CF48
:100490008C9185FFF2CF808185FFEDCFCE010E9448
:1004A000C601E9CFDF91CF9108953FB7F8948091CD
:1004B000BC019091BD01A091BE01B091BF0126B5D4
:1004C000A89B05C02F3F19F00196A11DB11D3FBF8C
:1004D000BA2FA92F982F8827BC01CD01620F711D5B
:1004E000811D911D42E0660F771F881F991F4A9555
:1004F000D1F708950895E091410280914002E817F4
:1005000030F4F0E0E05EFD4F808190E008958FEFE1
:100510009FEF08958091400290914102891B990BB1
:10052000089590E080E0089585ED8093BC0080916F
:10053000BC0084FDFCCF1092FB010895613298F459
:100540002091FB01243089F460939401282FA4E7C3
:10055000B1E0FC018E2F821B861710F080E0089519
:1005600081918D93F7CF81E0089582E00895CF9235
:10057000DF92EF92FF920F931F93CF93DF937C0153
:10058000CB018A012091FC01222389F0EB016B0150
:10059000C40ED51ECC15DD0569F06991D701ED912A
:1005A000FC910190F081E02DC7010995F3CF642FF4
:1005B0000E949E02C801DF91CF911F910F91FF9081
:1005C000EF90DF90CF900895CF93DF931F92CDB738
:1005D000DEB769832091FC012223F9F020911F02EC
:1005E000203258F021E030E0FC013383228390E098
:1005F00080E00F90DF91CF9108958091FD01E82F69
:10060000F0E0E250FE4F998190838F5F8093FD016F
:1006100080931F0281E090E0ECCF61E0CE01019673
:100620000E949E02F7CFFC0101900020E9F731976C
:10063000AF01481B590BBC0182E492E00C944801C5
:100640008F929F92AF92BF920F931F93CF93DF939E
:10065000CDB7DEB7A1970FB6F894DEBF0FBECDBF02
:1006600019A2423008F44AE08E010F5D1F4F842E1C
:10067000912CB12CA12CA50194010E949B0AE62F7C
:10068000B901CA01EA30F4F4E05DD801EE938D01BE
:10069000232B242B252B79F790E080E0109719F07D
:1006A000CD010E941303A1960FB6F894DEBF0FBED2
:1006B000CDBFDF91CF911F910F91BF90AF909F90D1
:1006C0008F900895E95CE1CF009711F00C9413032B
:1006D00090E080E008951F920F920FB60F921124C0
:1006E0002F933F934F935F936F937F938F939F933A
:1006F000AF93BF93EF93FF9382E492E00E94C60111
:10070000FF91EF91BF91AF919F918F917F916F91E9
:100710005F914F913F912F910F900FBE0F901F90BF
:1007200018951F920F920FB60F9211242F938F934B
:100730009F93EF93FF93E0915202F09153028081D7
:10074000E0915802F091590282FD1BC09081809186
:100750005B028F5F8F7320915C02821741F0E09102
:100760005B02F0E0EE5BFD4F958F80935B02FF91A3
:10077000EF919F918F912F910F900FBE0F901F902F
:1007800018958081F4CF1F920F920FB60F9211240B
:100790002F933F938F939F93AF93BF938091B80113
:1007A0009091B901A091BA01B091BB013091B7010C
:1007B00023E0230F2D3758F50196A11DB11D20937D
:1007C000B7018093B8019093B901A093BA01B09397
:1007D000BB018091BC019091BD01A091BE01B0917F
:1007E000BF010196A11DB11D8093BC019093BD0175
:1007F000A093BE01B093BF01BF91AF919F918F9124
:100800003F912F910F900FBE0F901F90189526E8E3
:10081000230F0296A11DB11DD2CF1F920F920FB6CA
:100820000F9211242F933F934F935F936F937F9376
:100830008F939F93AF93BF93EF93FF938091B900F2
:10084000887F803609F44AC0F0F5883209F4A5C0E3
:1008500018F5803109F499C0B8F4882309F4F2C07E
:10086000883009F492C0FF91EF91BF91AF919F91B1
:100870008F917F916F915F914F913F912F910F9049
:100880000FBE0F901F901895883109F486C08032F2
:1008900051F78093F90114C0803409F49BC040F4EF
:1008A0008033B9F38833F9F68093F90185ECAEC053
:1008B000803509F483C0883509F494C0883499F6EA
:1008C0000E949402D0CF883909F48AC038F588375D
:1008D00029F050F4883611F0803729F683E08093B0
:1008E000FB011092B60155C0883809F479C08039EF
:1008F00019F0803809F0B7CF8091B601803208F046
:100900006FC0E091B60181E08E0F8093B6018091B7
:10091000BB00F0E0EA56FE4F80833BC0803B39F0DD
:10092000D0F4803A09F477C0883A09F09CCF84E08B
:100930008093FB011092950110929401F0E0E0E0A9
:1009400009958091940181110FC081E080939401F9
:100950001092740109C0803C09F4A8CF883C09F4C6
:10096000A5CF883B09F07FCFE091950181E08E0F04
:1009700080939501F0E0EC58FE4F80818093BB009E
:10098000909195018091940129C08091D601809326
:10099000BB0085EC8093BC0066CF9091F8018091FC
:1009A000F701981758F5E091F80181E08E0F8093D8
:1009B000F801F0E0E952FE4F8081E9CFE091F801C3
:1009C00081E08E0F8093F8018091BB00F0E0E95246
:1009D000FE4F80839091F8018091F7019817C8F23B
:1009E00085E8D8CFE091F80181E08E0F8093F8017F
:1009F0008091BB00F0E0E952FE4F80838091FA01C4
:100A000081115ECF81E08093D50184EA8093BC00A0
:100A10001092FB0128CF8091B601803230F4E09132
:100A2000B601F0E0EA56FE4F10820E9494026091F7
:100A3000B60170E086E991E0F0E0E0E009951092FF
:100A4000B60134CF1092F9013BCFE2E4F2E0138219
:100A5000128288EE93E0A0E0B0E084839583A683C1
:100A6000B78324E031E03183208325EC30E0358703
:100A7000248724EC30E03787268720EC30E0318B68
:100A8000208B21EC30E0338B228B22EC30E0358B55
:100A9000248B26EC30E0378B268B118E128E138E32
:100AA000148EEFEDF2E01382128284839583A68385
:100AB000B78386E191E0918380830895CF93DF939C
:100AC000CDB7DEB72E970FB6F894DEBF0FBECDBF01
:100AD000789484B5826084BD84B5816084BD85B519
:100AE000826085BD85B5816085BD80916E00816025
:100AF00080936E00109281008091810082608093CB
:100B000081008091810081608093810080918000CC
:100B10008160809380008091B10084608093B100F7
:100B20008091B00081608093B00080917A008460F1
:100B300080937A0080917A00826080937A0080911D
:100B40007A00816080937A0080917A008068809337
:100B50007A001092C100E0915202F091530282E0BB
:100B60008083E0914E02F0914F021082E09150029A
:100B7000F09151028FEC808310925A02E09156025C
:100B8000F091570286E08083E0915402F091550283
:100B9000808180618083E0915402F09155028081D0
:100BA00088608083E0915402F091550280818068D2
:100BB0008083E0915402F091550280818F7D808383
:100BC00010924102109240021092FD0110921F02F9
:100BD0001092FB0121E02093FA011092D50182E1ED
:100BE0000E94820083E10E9482008091B9008E7F82
:100BF0008093B9008091B9008D7F8093B90088E41B
:100C00008093B80085E48093BC0031E03093FC0110
:100C100088E680931E021092FD0110921F026BE67F
:100C20008FED92E00E94E40260E08FED92E00E947E
:100C3000E40281E00E94EF003324339495EC292EE6
:100C40000AE211E03092FC0188E680931E021092C5
:100C5000FD0110921F026BE38FED92E00E94E4020F
:100C600080E00E94EF008091FB018111FCCF309267
:100C7000FB013092FA019FEF9093F9011092F80175
:100C80002DE02093F7013092D6018091D601806D3E
:100C90008093D6018091D501813009F074C1109202
:100CA000D5018091D6018093BB002092BC00809139
:100CB000FB018130E1F38091F8019EE08E3010F469
:100CC0009091F801A7EDB1E0E0E2F2E080E0891355
:100CD0005EC110924102809340020E94DC00F82E17
:100CE0000E94DC00FA82198229813A81822B932B9F
:100CF0009093D4018093D3010E94DC00F82E0E94CF
:100D0000DC00FC821B822B813C81822B932B9093F5
:100D1000D2018093D1010E94DC00F82E0E94DC00F9
:100D2000FE821D822D813E81822B932B9093D001D8
:100D30008093CF010E94DC00F82E0E94DC00F88630
:100D40001F822F813885822B932B9093CE01809325
:100D5000CD010E94DC00F82E0E94DC00FA86198684
:100D600029853A85822B932B9093CC018093CB01DC
:100D70000E94DC00F82E0E94DC00FC861B862B857E
:100D80003C85822B932B9093CA018093C9010E94CA
:100D9000DC00F82E0E94DC00FE861D862D853E8537
:100DA000822B932B9093C8018093C70184E291E03A
:100DB0000E9464038091D4018F938091D3018F931B
:100DC0001F930F9380EC91E09F938F930E94C30A2F
:100DD00080EC91E00E9464038EE291E00E94640343
:100DE0008091D2018F938091D1018F931F930F93A4
:100DF00080EC91E09F938F930E94C30A80EC91E076
:100E00000E94640387E391E00E9464038091D00113
:100E10008F938091CF018F931F930F9380EC91E07C
:100E20009F938F930E94C30A80EC91E00E94640319
:100E300080E491E00E9464036091CD017091CE0145
:100E4000072E000C880B990B0E94740920E030E0FB
:100E50004AEA53E40E94D10828EB3EE142E152E421
:100E60000E9460086B017C014B015C010FB6F89495
:100E7000DEBF0FBECDBFAC019B010E94960A882346
:100E800009F489C08AE491E00E94130386E591E0A9
:100E90000E9464038091CC018F938091CB018F934A
:100EA0001F930F9320EC31E03F932F930E94C30ACE
:100EB00080EC91E00E9464038FE591E00E9464035E
:100EC0008091CA018F938091C9018F931F930F93D3
:100ED00020EC31E03F932F930E94C30A80EC91E015
:100EE0000E94640388E691E00E9464038091C80137
:100EF0008F938091C7018F931F930F9320EC31E064
:100F00003F932F930E94C30A80EC91E00E946403F8
:100F100081E791E00E9413030E9455024B015C019E
:100F20000FB6F894DEBF0FBECDBF88EEC82E83E0AB
:100F3000D82EE12CF12C0E945502681979098A09F2
:100F40009B09683E734081059105A8F331E0C31AFF
:100F5000D108E108F10888EE880E83E0981EA11CF4
:100F6000B11CC114D104E104F10429F780E090E040
:100F7000892B09F467CE0E94B201882309F462CE5E
:100F80000E9400005FCE35EE3093BC0090CE2D91D4
:100F900021938F5F9CCE26013701E89477F82FEFDD
:100FA0003FEF4FE75FE7C301B2010E94960A81114C
:100FB0000DC02FEF3FEF4FE75FE7C301B2010E9483
:100FC000CC0818161CF48EE491E05ECF2FEF3FEFB3
:100FD0004FE75FE4C701B6010E94240A18161CF40B
:100FE00082E591E051CF2FEF3FEF4FE75FECC70174
:100FF000B6010E94CC0887FDF3CF20E030E0A901C4
:10100000C701B6010E94CC0887FF0BC06DE282E4E5
:1010100092E00E94E80146015701B7FAB094B7F890
:10102000B0942AE037ED43EA5BE3C501B4010E94C6
:1010300060084B015C010E9443096B017C010E9426
:1010400072099B01AC01C501B4010E945F084B010C
:101050005C014AE0C701B6010E9420036EE282E40F
:1010600092E00E94E80120E030E040E251E4C50156
:10107000B4010E94290A4B015C010E9443096B01E3
:10108000F12CE12C4AE0C701B6010E942003C70100
:10109000B6010E9472099B01AC01C501B4010E9416
:1010A0005F0820E030E040E251E40E94290A0E94FB
:1010B000430990E080E04AE00E942003E7CE5058C8
:1010C000BB27AA270E9477080C94EA090E94DC0932
:1010D00038F00E94E30920F039F49F3F19F426F418
:1010E0000C94D9090EF4E095E7FB0C94D309E92F91
:1010F0000E94FB0958F3BA17620773078407950724
:1011000020F079F4A6F50C941D0A0EF4E0950B2E50
:10111000BA2FA02D0B01B90190010C01CA01A00149
:101120001124FF27591B99F0593F50F4503E68F1A4
:101130001A16F040A22F232F342F4427585FF3CFE5
:10114000469537952795A795F0405395C9F77EF4B6
:101150001F16BA0B620B730B840BBAF09150A1F0FF
:10116000FF0FBB1F661F771F881FC2F70EC0BA0F85
:10117000621F731F841F48F4879577956795B7950D
:10118000F7959E3F08F0B0CF9395880F08F0992708
:10119000EE0F9795879508950E94AF0908F481E0B6
:1011A00008950E94E5080C94EA090E94E30958F0AA
:1011B0000E94DC0940F029F45F3F29F00C94D30928
:1011C00051110C941E0A0C94D9090E94FB0968F372
:1011D0009923B1F3552391F3951B550BBB27AA27F0
:1011E00062177307840738F09F5F5F4F220F331F2A
:1011F000441FAA1FA9F335D00E2E3AF0E0E832D0F2
:1012000091505040E695001CCAF72BD0FE2F29D0F4
:10121000660F771F881FBB1F261737074807AB07C6
:10122000B0E809F0BB0B802DBF01FF2793585F4F3B
:101230003AF09E3F510578F00C94D3090C941E0AA5
:101240005F3FE4F3983ED4F3869577956795B7951D
:10125000F7959F5FC9F7880F911D9695879597F928
:101260000895E1E0660F771F881FBB1F62177307A1
:101270008407BA0720F0621B730B840BBA0BEE1FB6
:1012800088F7E09508950E94030A88F09F5798F028
:10129000B92F9927B751B0F0E1F0660F771F881F7B
:1012A000991F1AF0BA95C9F714C0B13091F00E9495
:1012B0001D0AB1E008950C941D0A672F782F882726
:1012C000B85F39F0B93FCCF3869577956795B395BC
:1012D000D9F73EF490958095709561957F4F8F4F2B
:1012E0009F4F0895E89409C097FB3EF49095809530
:1012F000709561957F4F8F4F9F4F9923A9F0F92FDC
:1013000096E9BB279395F695879577956795B79559
:10131000F111F8CFFAF4BB0F11F460FF1BC06F5F3F
:101320007F4F8F4F9F4F16C0882311F096E911C051
:10133000772321F09EE8872F762F05C0662371F072
:1013400096E8862F70E060E02AF09A95660F771F86
:10135000881FDAF7880F9695879597F90895990F62
:101360000008550FAA0BE0E8FEEF16161706E8076F
:10137000F907C0F012161306E407F50798F0621B90
:10138000730B840B950B39F40A2661F0232B242B65
:10139000252B21F408950A2609F4A140A6958FEF84
:1013A000811D811D089597F99F6780E870E060E0D6
:1013B00008959FEF80EC089500240A9416161706EE
:1013C00018060906089500240A9412161306140636
:1013D00005060895092E0394000C11F4882352F099
:1013E000BB0F40F4BF2B11F460FF04C06F5F7F4F51
:1013F0008F4F9F4F089557FD9058440F551F59F038
:101400005F3F71F04795880F97FB991F61F09F3FF1
:1014100079F087950895121613061406551FF2CF1A
:101420004695F1DF08C0161617061806991FF1CF6A
:1014300086957105610508940895E894BB27662791
:101440007727CB0197F908950E94AF0908F48FEF31
:1014500008950E943C0A0C94EA090E94DC0938F0C5
:101460000E94E30920F0952311F00C94D3090C9409
:10147000D90911240C941E0A0E94FB0970F3959F50
:10148000C1F3950F50E0551F629FF001729FBB277B
:10149000F00DB11D639FAA27F00DB11DAA1F649F17
:1014A0006627B00DA11D661F829F2227B00DA11DCA
:1014B000621F739FB00DA11D621F839FA00D611D50
:1014C000221F749F3327A00D611D231F849F600D71
:1014D000211D822F762F6A2F11249F5750409AF09A
:1014E000F1F088234AF0EE0FFF1FBB1F661F771F26
:1014F000881F91505040A9F79E3F510580F00C94F1
:10150000D3090C941E0A5F3FE4F3983ED4F386950A
:1015100077956795B795F795E7959F5FC1F7FE2B90
:10152000880F911D9695879597F908950E94AF09A8
:10153000880B990B0895A1E21A2EAA1BBB1BFD0173
:101540000DC0AA1FBB1FEE1FFF1FA217B307E407A2
:10155000F50720F0A21BB30BE40BF50B661F771FFA
:10156000881F991F1A9469F76095709580959095DA
:101570009B01AC01BD01CF010895EE0FFF1F059047
:10158000F491E02D0994AEE0B0E0E9ECFAE00C94BF
:10159000720D0D891E8986E08C831A8309838FEF73
:1015A0009FE79E838D83AE01475E5F4F6F89788D85
:1015B000CE0101960E94E60A2F813885020F131F83
:1015C000F80110822E96E4E00C948E0DABE0B0E0B2
:1015D000ECEEFAE00C94640D7C013B018A01FC0105
:1015E00017821682838181FFC8C1CE0101965C01FA
:1015F000F7019381F30193FD859193FF81913F0161
:10160000882309F453C1853239F493FD859193FF02
:1016100081913F01853229F4B70190E00E94D60CF8
:10162000E7CF912C212C312CFFE1F31538F08B32D0
:1016300011F190F4803209F1833229F137FC3CC07A
:1016400020ED280F2A3050F536FE20C08AE0989E03
:10165000200D1124922E06C08D3291F0803371F747
:10166000689430F8F30193FD859193FF81913F01D8
:101670008111DACF21C0689431F8689432F8F2CF42
:10168000689433F8EFCF689434F8ECCFEAE02E9EFC
:10169000200D1124222E689435F8E4CF8E3229F4DF
:1016A00036FC04C1689436F8DDCF8C3619F46894A2
:1016B00037F8D8CF8836B1F2982F9F7D9554933064
:1016C000E0F08336A1F18337C1F1833509F063C0BF
:1016D0002801F2E04F0E511CF801C080D180692D25
:1016E00070E036FC02C06FEF7FEFC6010E94C00CB5
:1016F0004C01689437F882010AC00C5F1F4FFFE36A
:10170000F98388248394912C6501E89437F833FE9B
:101710002DC0522C8114910471F5552009F468CF25
:10172000B70180E290E00E94D60C5A94F6CFF801FF
:10173000808189830E5F1F4FE4CF2801F2E04F0EB6
:10174000511CF801C080D180692D70E036FC02C0C8
:101750006FEF7FEFC6010E94CB0C4C018201D5CF09
:10176000B70180E290E00E94D60C2A942814190454
:1017700009F0B0F7CECFF60137FC859137FE8191A5
:101780006F01B70190E00E94D60C51105A94F1E01D
:101790008F1A9108BFCF843619F0893609F077C0C7
:1017A000F80137FE6BC060817181828193810C5F8B
:1017B0001F4FF32DFF763F2E97FF09C09095809520
:1017C000709561957F4F8F4F9F4F689437F82AE04F
:1017D00030E0A5010E94060DC82ECA188C2C432C9F
:1017E00036FE0CC0E89440F8C91440F434FE05C03D
:1017F00032FC03C0F32DFE7E4F2E892C44FE95C093
:10180000FE01EC0DF11D8081803309F087C0242D8D
:10181000297E422E842D8870582E43FC95C040FEB0
:101820008FC09C2C821418F42C0C922C981844FE17
:1018300091C0B70180E390E00E94D60C42FE09C03F
:1018400088E790E041FE02C088E590E0B7010E9481
:10185000D60CC91408F48AC0CA94D12C9FEFC91AB7
:10186000D90ACA0CDB1CF60182916F01B70190E026
:101870000E94D60CAC14BD04B1F74FCF60817181CA
:10188000072E000C880B990B0E5F1F4F92CFD32CA5
:10189000E894D4F82AE030E0853739F1232D297F08
:1018A000D22E8F3601F148F48835A9F0F7018681F0
:1018B00097812B96E2E10C94800D803749F08837B0
:1018C000A9F7D4FE02C06894D2F820E130E00DC040
:1018D0006894D4F8F6CF34FE03C0822F8660D82EE9
:1018E00020E132E002C028E030E0F801D7FE0FC06E
:1018F00060817181828193810C5F1F4FA5010E94DD
:10190000060DC82ECA183D2CE89437F867CF6081C1
:10191000718190E080E00E5F1F4FF0CF42FC02C06B
:10192000839478CF8394839475CF842D867809F43B
:1019300071CFF6CFB70180E290E00E94D60C83947D
:101940008214C0F3512C73CF522C5818821408F40F
:101950006ECFF8CF842D867809F47BCF8BE241FEE1
:1019600080E247FC8DE2B70190E071CFB70180E3E0
:1019700090E00E94D60C9A946CCF8FEF9FEF99CF96
:10198000FC010590615070400110D8F7809590954A
:101990008E0F9F1F0895FC0161507040019001104F
:1019A000D8F7809590958E0F9F1F08950F931F93E2
:1019B000CF93DF93182F092FEB018B8181FD09C095
:1019C0001FEF0FEF812F902FDF91CF911F910F917C
:1019D000089582FF14C02E813F818C819D8128173C
:1019E00039073CF4E881F981CF0101969983888316
:1019F00010838E819F8101969F838E83E3CFE8853C
:101A0000F985812F0995892BA1F3DACFFA01AA274D
:101A1000283051F1203181F1E8946F936E7F6E5F31
:101A20007F4F8F4F9F4FAF4FB1E03ED0B4E03CD0DF
:101A3000670F781F891F9A1FA11D680F791F8A1FC2
:101A4000911DA11D6A0F711D811D911DA11D20D029
:101A500009F468943F912AE0269F11243019305DE3
:101A60003193DEF6CF010895462F4770405D4193D4
:101A7000B3E00FD0C9F7F6CF462F4F70405D4A3321
:101A800018F0495D31FD4052419302D0A9F7EACFE9
:101A9000B4E0A6959795879577956795BA95C9F718
:101AA00000976105710508959B01AC010A2E06940B
:101AB0005795479537952795BA95C9F7620F731FC4
:101AC000841F951FA01D08952F923F924F925F9201
:101AD0006F927F928F929F92AF92BF92CF92DF923E
:101AE000EF92FF920F931F93CF93DF93CDB7DEB7A3
:101AF000CA1BDB0B0FB6F894DEBF0FBECDBF099437
:101B00002A88398848885F846E847D848C849B848D
:101B1000AA84B984C884DF80EE80FD800C811B819B
:101B2000AA81B981CE0FD11D0FB6F894DEBF0FBECA
:0A1B3000CDBFED010895F894FFCF3A
:101B3A0000000000E801480175013502A601840190
:101B4A00980100000000E402B70291027A028A02B8
:101B5A00C9007B026158203D200025366400207CA4
:101B6A00206159203D2000207C20615A203D200020
:101B7A00207C20746D70203D20006E616E00696EBD
:101B8A0066006F766600207C206758203D20002082
:101B9A007C206759203D2000207C20675A203D2068
:041BAA00000D0A0020
:00000001FF
