:020000040000FA
:100000000C9463000C948B000C948B000C94E8040B
:100010000C94E8040C94E8040C948B000C948B0072
:100020000C948B000C948B000C948B000C948B0024
:100030000C948B000C948B000C948B000C948B0014
:100040000C949E040C948B000C948B000C948B00ED
:100050000C948B000C948B000C948B000C948B00F4
:100060000C9460050C948B00000000002400270015
:100070002A0000000008000201000003040700003D
:1000800000000000000000000000230026002900FE
:1000900000000000250028002B00040404040404D0
:1000A0000404020202020202030303030303010227
:1000B00004081020408001020408102001020408F6
:1000C00010207F06740911241FBECFEFD8E0DEBFD9
:1000D000CDBF11E0A0E0B1E0EAEDF3E102C0059090
:1000E0000D92A433B107D9F722E0A4E3B1E001C037
:1000F0001D92A636B207E1F710E0C2E6D0E004C0D8
:100100002197FE010E94DA09C136D107C9F70E9482
:10011000FE060C94E0090C94000008950895AF9237
:10012000BF92CF92DF92EF92FF920F931F93CF93E4
:10013000DF936C017B018B01040F151FEB015E0146
:10014000AE18BF08C017D10759F06991D601ED91DB
:10015000FC910190F081E02DC6010995892B79F77A
:10016000C501DF91CF911F910F91FF90EF90DF902C
:10017000CF90BF90AF90089590E0FC01EE58FF4FF4
:100180002491FC01E255FF4F3491FC01E656FF4FEC
:10019000E491EE23C9F0222339F0233001F1A8F4D1
:1001A000213019F1223029F1F0E0EE0FFF1FE05766
:1001B000FF4FA591B4918FB7F894EC91611126C0CF
:1001C00030953E233C938FBF08952730A9F0283007
:1001D000C9F0243049F7809180008F7D03C0809161
:1001E00080008F7780938000DFCF84B58F7784BDC8
:1001F000DBCF84B58F7DFBCF8091B0008F7780936C
:10020000B000D2CF8091B0008F7DF9CF3E2BDACFF6
:10021000CF93DF9390E0FC01E255FF4F2491865687
:100220009F4FFC0184918823D1F090E0880F991FA3
:10023000FC01E859FF4FA591B491FC01E057FF4F35
:10024000C591D49161110EC09FB7F8948C91E22FA3
:10025000E0958E238C932881E223E8839FBFDF9172
:10026000CF9108958FB7F894EC91E22BEC938FBF68
:10027000F6CF3FB7F8948091BD019091BE01A09157
:10028000BF01B091C00126B5A89B05C02F3F19F052
:100290000196A11DB11D3FBFBA2FA92F982F882706
:1002A000BC01CD01620F711D811D911D42E0660FE1
:1002B000771F881F991F4A95D1F708952091C30190
:1002C0003091C4012817390771F49091C1018091D0
:1002D000C201981741F0E091C101F0E0E858FE4FEB
:1002E000808190E008958FEF9FEF08950895EF9239
:1002F000FF920F931F93CF93DF93DC015C96ED90F9
:10030000FC905D97E114F10479F481E090E013969C
:100310009C938E93129790E080E0DF91CF911F9194
:100320000F91FF90EF9008955196ED91FC915297A7
:1003300050968C915097982F90950FB75E962C9170
:100340005E97122F127021FD6095F8942081112381
:1003500019F1282B2083E7012197F1F728E0462F98
:1003600050E0308160FF1AC0382B3083E7012197BD
:10037000F1F7BA0175956795215089F7112381F03E
:100380008081892380830FBF5C968D919C9101971A
:10039000F1F781E090E0C1CF2923DCCF3923E5CF0D
:1003A0009081892BEFCF2091C3013091C401281790
:1003B000390771F48091C2012091C10190E0805C05
:1003C0009F4F821B910960E470E00E94900908959C
:1003D00090E080E008952091C3013091C401281776
:1003E0003907B9F49091C1018091C201981789F041
:1003F000E091C101F0E0E858FE4F80812091C101F9
:1004000030E02F5F3F4F2F7333272093C10190E0DF
:1004100008958FEF9FEF089520915501260F332700
:10042000331F21323105ECF420911102FC0190E0E0
:1004300080E0243069F082E00895A0915501219177
:10044000AC014B5C5E4FA40FB52FB11D2C930196F0
:10045000861798F380915501680F6093550180E0ED
:10046000089581E008951092110281E080931002B6
:100470001092EB0161E082E10E94BC0061E083E147
:100480000E94BC00E9EBF0E080818E7F8083808158
:100490008D7F808388E48093B80085E48093BC00DE
:1004A0000895CF93DF9391E0909334018823B9F0BE
:1004B000C091B800D091BA008091BC008A7B809333
:1004C000BC0060E082E10E94BC0060E083E10E9429
:1004D000BC000E943302D093BA00C093B800DF91F1
:1004E000CF9108958F929F92AF92BF92CF92DF9259
:1004F000EF92FF920F931F93CF93DF93D0913A0225
:10050000D13208F0D7C0182FC09139020E943901AA
:100510006B017C018091110281116BC082E080939C
:100520001102109310028FEF80930F0210920E02AF
:10053000D0930D02A9E1B2E0EDEEF1E080E0D81336
:1005400091C01092EC018091EC01CC0FC82BC093AC
:10055000EC018091EB01813009F088C01092EB0131
:100560000E9439016B017C018091EC018093BB00FA
:100570008091130290911402A0911502B09116027D
:10058000892B8A2B8B2BA1F00E9439010091130239
:100590001091140220911502309116026C197D09F8
:1005A0008E099F09061717072807390708F442C064
:1005B0008091BC0083FDD8CF85EC8093BC000E9465
:1005C00039016B017C0180911102823009F450C025
:1005D00080910F028F3F09F46FC080910F0280322B
:1005E00009F46CC080910F02803309F469C084E083
:1005F00026C08091130290911402A0911502B0912F
:100600001602892B8A2B8B2B09F484CF0E94390187
:100610008090130290901402A0901502B0901602E0
:100620006C197D098E099F0986169706A806B906DA
:1006300008F070CF809112020E94510285E0109262
:10064000180210923A0210921702DF91CF911F9177
:100650000F91FF90EF90DF90CF90BF90AF909F9061
:100660008F9008959D9191938F5F69CF85EEA5CF6F
:100670008091130290911402A0911502B09116027C
:10068000892B8A2B8B2B09F49ECF0E943901009174
:1006900013021091140220911502309116026C1968
:1006A0007D098E099F09061717072807390708F0E3
:1006B0008ACFC0CF81E0C3CF80E0C1CF82E0BFCF7F
:1006C00083E0BDCFE091CA018091C901E81730F401
:1006D000F0E0E553FE4F808190E008958FEF9FEFAB
:1006E00008959091CA018091C9012FEF3FEF9817AB
:1006F00048F4E92FF0E0E553FE4F208130E09F5FA2
:100700009093CA01C90108958091C9019091CA01CD
:10071000891B990B0895CF92DF92EF92FF920F936E
:100720001F93CF93DF937C01CB018A0120911702A5
:10073000222389F0EB016B01C40ED51ECC15DD051B
:1007400069F06991D701ED91FC910190F081E02D64
:10075000C7010995F3CF642F0E940C02C801DF91F5
:10076000CF911F910F91FF90EF90DF90CF90089560
:10077000CF93DF931F92CDB7DEB769832091170225
:100780002223F9F020913A02203258F021E030E0A3
:10079000FC013383228390E080E00F90DF91CF91C2
:1007A000089580911802E82FF0E0E75EFD4F9981EF
:1007B00090838F5F8093180280933A0281E090E0EB
:1007C000ECCF61E0CE0101960E940C02F7CF90E0E1
:1007D00080E00895FC0101900020E9F73197AF0116
:1007E000481B590BBC0187E492E00C948F008F9258
:1007F0009F92AF92BF920F931F93CF93DF93CDB78A
:10080000DEB7A1970FB6F894DEBF0FBECDBF19A219
:10081000423008F44AE08E010F5D1F4F842E912C68
:10082000B12CA12CA50194010E94A409E62FB901C5
:10083000CA01EA30F4F4E05DD801EE938D01232B78
:10084000242B252B79F790E080E0109719F0CD014B
:100850000E94EA03A1960FB6F894DEBF0FBECDBF8B
:10086000DF91CF911F910F91BF90AF909F908F908C
:100870000895E95CE1CFCF92DF92EF92FF92CF93A0
:10088000DF936B017C016DE287E492E00E947701C7
:10089000EC0166277727CB016C197D098E099F092A
:1008A0004AE00E94F7038C0F9D1FDF91CF91FF90CC
:1008B000EF90DF90CF900895BC01990F880B990BB2
:1008C00097FD0C943B044AE00C94F70385ED80936C
:1008D000BC008091130290911402A0911502B09176
:1008E00016020796A11DB11D23E0B695A795979511
:1008F00087952A95D1F72091BC0024FD03C0109262
:100900001102089540911302509114026091150252
:1009100070911602452B462B472B69F30097A105D2
:10092000B10541F025E32A95F1F700000197A109EF
:10093000B109E1CF809112020C9451021F920F92E3
:100940000FB60F9211242F933F938F939F93AF93E2
:10095000BF938091B9019091BA01A091BB01B09170
:10096000BC013091B80123E0230F2D3758F50196D3
:10097000A11DB11D2093B8018093B9019093BA01D4
:10098000A093BB01B093BC018091BD019091BE01C9
:10099000A091BF01B091C0010196A11DB11D80932E
:1009A000BD019093BE01A093BF01B093C001BF9160
:1009B000AF919F918F913F912F910F900FBE0F900C
:1009C0001F90189526E8230F0296A11DB11DD2CFC6
:1009D0001F920F920FB60F9211242F933F934F93B4
:1009E0005F936F937F938F939F93AF93BF93EF9397
:1009F000FF93E091C301F091C401309749F0A685BF
:100A0000B7858585968D91FF14C09C918923A1F4AB
:100A1000FF91EF91BF91AF919F918F917F916F91D6
:100A20005F914F913F912F910F900FBE0F901F90AC
:100A300018959C91892361F7A389B4899C91858934
:100A4000809589238C93868997890197F1F7608D2A
:100A5000718DA685B785558538E020E0CB010197DB
:100A6000F1F7822F90E095958795282F4C9145239B
:100A700009F02068315091F7868D81FD2095809195
:100A8000C20190E001968F7399273091C101381708
:100A900099F0A091C201B0E0A858BE4F2C9380936A
:100AA000C201828D938D0197F1F7A389B4898C914E
:100AB0009589892B8C93ACCF868D8160868FF1CF01
:100AC0001F920F920FB60F9211242F933F934F93C3
:100AD0005F936F937F938F939F93AF93BF93EF93A6
:100AE000FF938091B900887F803609F44AC0F0F501
:100AF000883209F4A7C018F5803109F49BC0B8F416
:100B0000882309F4F9C0883009F494C0FF91EF916B
:100B1000BF91AF919F918F917F916F915F914F9115
:100B20003F912F910F900FBE0F901F901895883115
:100B300009F488C0803251F780930F0214C08034CA
:100B400009F49DC040F48033B9F38833F9F68093FB
:100B50000F0285ECB0C0803509F485C0883509F4F2
:100B600096C0883499F60E946604D0CF883909F47B
:100B70008CC038F5883729F050F4883611F080376A
:100B800029F683E0809311021092770157C08838CC
:100B900009F47BC0803919F0803809F0B7CF809113
:100BA0007701803208F071C0E091770181E08E0F0B
:100BB000809377018091BB00F0E0E95AFE4F80837B
:100BC0003DC0803B39F0E0F4803A09F479C0883ABE
:100BD00009F09CCF84E0809311021092560110928C
:100BE0005501E091C701F091C80109958091550127
:100BF00081110FC081E0809355011092350109C029
:100C0000803C09F4A6CF883C09F4A3CF883B09F0C7
:100C10007DCFE091560181E08E0F80935601F0E088
:100C2000EB5CFE4F80818093BB00909156018091D8
:100C3000550129C08091EC018093BB0085EC809325
:100C4000BC0064CF90910E0280910D02981758F568
:100C5000E0910E0281E08E0F80930E02F0E0E351EE
:100C6000FE4F8081E9CFE0910E0281E08E0F8093EC
:100C70000E028091BB00F0E0E351FE4F8083909123
:100C80000E0280910D029817C8F285E8D8CFE09146
:100C90000E0281E08E0F80930E028091BB00F0E087
:100CA000E351FE4F80838091100281115CCF81E07F
:100CB0008093EB0184EA8093BC001092110226CF4E
:100CC00085EC8093BC0010921102809177018032F4
:100CD00030F4E0917701F0E0E95AFE4F1082609124
:100CE000770170E0E091C501F091C60187E591E0E0
:100CF0000995109277010ACF10920F0234CF10920B
:100D00003E0210923D0288EE93E0A0E0B0E08093B6
:100D10003F0290934002A0934102B09342022EE022
:100D200031E030933C0220933B0210924A02109231
:100D3000490280934B0290934C02A0934D02B093D2
:100D40004E0280E291E09093480280934702109215
:100D50005E0210925D021092600210925F02109289
:100D6000620210926102109264021092630260911A
:100D700065026E7F6D7F609365026695617081E0AC
:100D800068278BE00E94BC0061E08BE00E940801B4
:100D9000E9EBF0E0E491E0935702E5EAF0E0E4915A
:100DA000F0E0EE0FFF1FE057FF4F85919491909375
:100DB00059028093580260E08AE00E940801809105
:100DC000650281FD04C061E08AE00E94BC008AE007
:100DD00080935302E8EBF0E0E491E0935402E4EAFC
:100DE000F0E0E491F0E0EE0FFF1FEA57FF4F85912E
:100DF000949190935602809355020895789484B507
:100E0000826084BD84B5816084BD85B5826085BD06
:100E100085B5816085BD80916E00816080936E0094
:100E20001092810080918100826080938100809186
:100E30008100816080938100809180008160809337
:100E400080008091B10084608093B1008091B000F7
:100E500081608093B00080917A00846080937A00F2
:100E600080917A00826080937A0080917A0081601C
:100E700080937A0080917A00806880937A00109243
:100E8000C1001092620210926102109260021092F0
:100E90005F0210925E0210925D028DE991E09093E4
:100EA00064028093630290915302963108F047C028
:100EB0002DEB30E030935E0220935D022BE931E0B0
:100EC0003093600220935F022CE231E030936202A3
:100ED000209361022091680084E0983048F031E06E
:100EE0009E3008F430E081E001C0880F3A95EAF7BF
:100EF000822B809368002DE630E0983050F02BE68E
:100F000030E09E3030F02CE630E0963110F030E0EA
:100F100020E030935B0220935A02292F30E0983072
:100F200008F01DC181E001C0880F9A95EAF780930F
:100F30005C0280916302909164020197F1F78091C5
:100F4000610290916202892B49F1E091C301F09115
:100F5000C40122E0E734F20709F1309739F0A389A0
:100F6000B4899C918589809589238C9380916502B1
:100F70008E7F809365021092C2011092C10187E4B6
:100F800092E09093C4018093C301E0915A02F091E2
:100F90005B02808190915C02892B80831092CA0150
:100FA0001092C9011092180210923A020E94330264
:100FB0008DE890E09093C8018093C7018EE890E09F
:100FC0009093C6018093C50181E08093170288E663
:100FD000809339026BE68BE392E00E94B80360E0F5
:100FE0008BE392E00E94B80381E00E947202C0E0AD
:100FF000D1E08881229660E00E94080181E0CA3039
:10100000D807B9F795EE292EC1E028E6322ED5ECA7
:1010100000E011E0F80180810E5F1F4F8E3008F074
:101020008E508770806480937C0080917A00806409
:1010300080937A0080917A0086FDFCCF80917800C1
:10104000909179009C01B901032E000C880B990B3B
:1010500037FF92C00E943B048EE291E00E94EA03B7
:10106000F1E00A301F07B1F6C0931702309239023F
:101070001092180210923A026BE38BE392E00E9406
:10108000B80380E00E9472020E9439012B013C01EA
:1010900080911102811174C0C0931102C09310029B
:1010A0002FEF20930F0210920E028BE080930D021F
:1010B000C093EC018091EC01806D8093EC018091F4
:1010C000EB01813009F0E9C01092EB010E94390177
:1010D0002B013C018091EC018093BB0080911302B5
:1010E00090911402A0911502B0911602892B8A2BBF
:1010F0008B2BA1F00E943901009113021091140270
:101100002091150230911602641975098609970914
:10111000061717072807390708F453C08091BC0049
:1011200083FDD8CFD093BC000E9439012B013C0134
:1011300080911102813009F4B3C080910E028C308D
:1011400008F0D0C080910E02EDEEF1E0ABECB1E022
:1011500090E09817D9F121912D939F5FFACF9E309F
:1011600040F42850310981E001C0880F2A95EAF740
:10117000DECE2E503109F7CF4AE00E94F7036CCF44
:101180008091130290911402A0911502B091160261
:10119000892B8A2B8B2B09F47BCF0E94390100917C
:1011A0001302109114022091150230911602641955
:1011B000750986099709061717072807390708F0E0
:1011C00067CF809112020E94510280E01092CA0102
:1011D0008093C90103E010E08BE392E00E94710369
:1011E000782E8BE392E00E947103E12C8E299729DF
:1011F0000E945C048EE291E00E94EA030150110912
:1012000059F710E000E08BE392E00E947103782E22
:101210008BE392E00E947103C12C8C2997290E94D4
:101220005C040230110521F08EE291E00E94EA0395
:101230000F5F1F4F0330110531F780E391E00E94EB
:10124000EA030E9439014B015C0182E3482E512CD4
:10125000612C712C0E943901681979098A099B094E
:10126000683E734081059105A8F391E0491A510841
:1012700061087108E8EE8E0EE3E09E1EA11CB11C11
:10128000411451046104710429F780E090E0892B36
:1012900009F4BECE0E940000BACE2092BC0044CF1A
:1012A0008091130290911402A0911502B091160240
:1012B000892B8A2B8B2B09F43BCF0E94390100919B
:1012C0001302109114022091150230911602641934
:1012D000750986099709061717072807390708F0BF
:1012E00027CF6FCF8CE030CF80E291E0909348021F
:1012F000809347028091C3019091C401875492402A
:1013000071F4E0915A02F0915B02908180915C024D
:101310008095892380831092C4011092C30108959F
:1013200097FB072E16F4009407D077FD09D00E9492
:10133000C60907FC05D03EF4909581959F4F08950E
:10134000709561957F4F0895A1E21A2EAA1BBB1BD1
:10135000FD010DC0AA1FBB1FEE1FFF1FA217B30781
:10136000E407F50720F0A21BB30BE40BF50B661F97
:10137000771F881F991F1A9469F76095709580955B
:1013800090959B01AC01BD01CF010895AA1BBB1B29
:1013900051E107C0AA1FBB1FA617B70710F0A61B75
:1013A000B70B881F991F5A95A9F780959095BC0196
:1013B000CD010895EE0FFF1F0590F491E02D0994E3
:1013C00010E0C2E6D0E004C0FE010E94DA092196D6
:1013D000C336D107C9F7F894FFCF0E000F001000F5
:1013E0001100140000000000B8038B03E70376012E
:1013F0008403710362030000000077018F00E7039C
:0E1400007601D301EB015E013B000D0A0000F6
:107E0000112484B714BE81FFF0D085E080938100F7
:107E100082E08093C00088E18093C10086E0809377
:107E2000C20080E18093C4008EE0C9D0259A86E02C
:107E300020E33CEF91E0309385002093840096BBD3
:107E4000B09BFECF1D9AA8958150A9F7CC24DD24C4
:107E500088248394B5E0AB2EA1E19A2EF3E0BF2EE7
:107E6000A2D0813461F49FD0082FAFD0023811F036
:107E7000013811F484E001C083E08DD089C08234E0
:107E800011F484E103C0853419F485E0A6D080C0E4
:107E9000853579F488D0E82EFF2485D0082F10E0AE
:107EA000102F00270E291F29000F111F8ED06801E7
:107EB0006FC0863521F484E090D080E0DECF843638
:107EC00009F040C070D06FD0082F6DD080E0C81688
:107ED00080E7D80618F4F601B7BEE895C0E0D1E017
:107EE00062D089930C17E1F7F0E0CF16F0E7DF06D8
:107EF00018F0F601B7BEE89568D007B600FCFDCFD4
:107F0000A601A0E0B1E02C9130E011968C91119780
:107F100090E0982F8827822B932B1296FA010C0160
:107F200087BEE89511244E5F5F4FF1E0A038BF0790
:107F300051F7F601A7BEE89507B600FCFDCF97BE46
:107F4000E89526C08437B1F42ED02DD0F82E2BD052
:107F50003CD0F601EF2C8F010F5F1F4F84911BD097
:107F6000EA94F801C1F70894C11CD11CFA94CF0C13
:107F7000D11C0EC0853739F428D08EE10CD085E9AC
:107F80000AD08FE07ACF813511F488E018D01DD067
:107F900080E101D065CF982F8091C00085FFFCCF94
:107FA0009093C60008958091C00087FFFCCF809118
:107FB000C00084FD01C0A8958091C6000895E0E648
:107FC000F0E098E1908380830895EDDF803219F02E
:107FD00088E0F5DFFFCF84E1DECF1F93182FE3DFCA
:107FE0001150E9F7F2DF1F91089580E0E8DFEE27F6
:047FF000FF270994CA
:027FFE00040479
:00000001FF
