:020000040000FA
:100000000C9453000C947B000C947B000C947B00AC
:100010000C947B000C947B000C947B000C947B0074
:100020000C947B000C947B000C947B000C947B0064
:100030000C947B000C947B000C947B000C947B0054
:100040000C942F020C947B000C94FD010C94D701AE
:100050000C947B000C947B000C947B000C947B0034
:100060000C947B000C947B0000000000250028000D
:100070002B0000000000240027002A0004040404D0
:100080000404040402020202020203030303030342
:10009000010204081020408001020408102001021F
:1000A00004081020060411241FBECFEFD8E0DEBFE5
:1000B000CDBF21E0A8E3B1E001C01D92A23EB2078E
:1000C000E1F711E0A0E0B1E0E2E3FDE002C005905D
:1000D0000D92A833B107D9F710E0C3E5D0E004C012
:1000E0002197FE010E949F04C235D107C9F70E94E3
:1000F00079020C9497060C940000AF92BF92CF92B5
:10010000DF92EF92FF920F931F93CF93DF936C01D7
:100110007B018B01040F151FEB015E01AE18BF08B8
:10012000C017D10759F06991D601ED91FC9101906A
:10013000F081E02DC6010995892B79F7C501DF9182
:10014000CF911F910F91FF90EF90DF90CF90BF90D4
:10015000AF900895FC01538D448D252F30E0842FFE
:1001600090E0821B930B541710F0CF9608950197DF
:100170000895FC01918D828D981761F0A28DAE0FCC
:10018000BF2FB11D5D968C91928D9F5F9F73928F53
:1001900090E008958FEF9FEF0895FC01918D828D7F
:1001A000981731F0828DE80FF11D858D90E008954C
:1001B0008FEF9FEF0895FC01918D228D892F90E0A4
:1001C000805C9F4F821B91098F739927089581E46A
:1001D00091E00E94DB0021E0892B09F420E0822FCE
:1001E000089580E090E0892B29F00E94E7008111BA
:1001F0000C9400000895FC01A48DA80FB92FB11D27
:10020000A35ABF4F2C91848D90E001968F7399274C
:10021000848FA689B7892C93A089B1898C9183702A
:1002200080648C93938D848D981306C00288F38923
:10023000E02D80818F7D80830895EF92FF920F9350
:100240001F93CF93DF93EC0181E0888F9B8D8C8D82
:1002500098131AC0E889F989808185FF15C09FB776
:10026000F894EE89FF896083E889F9898081837039
:10027000806480839FBF81E090E0DF91CF911F91E8
:100280000F91FF90EF900895F62E0B8D10E00F5F09
:100290001F4F0F731127E02E8C8D8E110CC00FB6DF
:1002A00007FCFACFE889F989808185FFF5CFCE0177
:1002B0000E94FB00F1CFEB8DEC0FFD2FF11DE35AF7
:1002C000FF4FF0829FB7F8940B8FEA89FB898081FA
:1002D0008062CFCFCF93DF93EC01888D8823B9F074
:1002E000AA89BB89E889F9898C9185FD03C0808141
:1002F00086FD0DC00FB607FCF7CF8C9185FFF2CFBE
:10030000808185FFEDCFCE010E94FB00E9CFDF9118
:10031000CF9108953FB7F89480913D0190913E01AF
:10032000A0913F01B091400126B5A89B05C02F3F89
:1003300019F00196A11DB11D3FBFBA2FA92F982F0B
:100340008827BC01CD01620F711D811D911D42E006
:10035000660F771F881F991F4A95D1F708950F934D
:100360001F93CF93DF93EC0188819981009759F017
:100370002A813B812617370730F081E0DF91CF914A
:100380001F910F9108958B016F5F7F4F0E94CA05E7
:10039000009759F0998388831B830A832C813D81C0
:1003A000232B59F7FC011082E8CF80E0E7CF1F92A2
:1003B0000F920FB60F9211242F933F934F935F9399
:1003C0006F937F938F939F93AF93BF93EF93FF931D
:1003D00081E491E00E94FB00FF91EF91BF91AF910A
:1003E0009F918F917F916F915F914F913F912F914D
:1003F0000F900FBE0F901F9018951F920F920FB67F
:100400000F9211242F938F939F93EF93FF93E0917B
:100410005101F09152018081E0915701F091580112
:1004200082FD1BC0908180915A018F5F8F73209154
:100430005B01821741F0E0915A01F0E0EF5BFE4F63
:10044000958F80935A01FF91EF919F918F912F91FA
:100450000F900FBE0F901F9018958081F4CF1F92C0
:100460000F920FB60F9211242F933F938F939F9368
:10047000AF93BF938091390190913A01A0913B01D4
:10048000B0913C013091380123E0230F2D3758F50E
:100490000196A11DB11D20933801809339019093DD
:1004A0003A01A0933B01B0933C0180913D019091B2
:1004B0003E01A0913F01B09140010196A11DB11DE7
:1004C00080933D0190933E01A0933F01B093400182
:1004D000BF91AF919F918F913F912F910F900FBE40
:1004E0000F901F90189526E8230F0296A11DB11DAD
:1004F000D2CFCF93DF93CDB7DEB72E970FB6F89458
:10050000DEBF0FBECDBF789484B5826084BD84B554
:10051000816084BD85B5826085BD85B5816085BDFE
:1005200080916E00816080936E00109281008091B6
:10053000810082608093810080918100816080933E
:100540008100809180008160809380008091B10063
:1005500084608093B1008091B00081608093B0008E
:1005600080917A00846080937A0080917A00826022
:1005700080937A0080917A00816080937A008091E4
:100580007A00806880937A001092C100E091510156
:10059000F091520182E08083E0914D01F0914E0193
:1005A0001082E0914F01F09150018FEC8083109206
:1005B0005901E0915501F091560186E08083E09168
:1005C0005301F0915401808180618083E091530157
:1005D000F0915401808188608083E0915301F09113
:1005E0005401808180688083E0915301F09154012F
:1005F00080818F7D808322E231E0A8E1B1E08D919E
:100600009D919927FC01E057FF4F449184589F4FDB
:10061000FC0184918823C9F090E0880F991FFC01A8
:10062000EE58FF4F65917491FC01E859FF4F059119
:1006300014919FB7F894FB018081409584238083B7
:10064000F8018081842380839FBF2A173B07B9F676
:100650008E010F5F1F4F20E0A22E20E0B22E1A86DF
:1006600019861C861B861E861D8670E060E0CE0102
:1006700009960E94AF0129853A8581116EC0211526
:10068000310519F0C9010E9441051A8619861E8696
:100690001D861C861B8698E1C92E91E0D92EF12C6F
:1006A000E12CF6018081F2E0CF0ED11C8E3008F0F3
:1006B0008E508770806480937C0080917A00806483
:1006C00080937A0080917A0086FDFCCF809178003B
:1006D000909179004AE0B8010E943304F80101903A
:1006E0000020E9F73197E01BF10BB1F08D849E8477
:1006F0008E0E9F1EB401CE0109960E94AF01882381
:1007000059F029853A858D859E85B801820F931F02
:100710000E9490069E868D8624E0E216F10409F47C
:1007200052C08D849E848FEF881A980AB401CE013E
:1007300009960E94AF01882361F029853A858D854D
:100740009E8562E271E0820F931F0E9490069E8652
:100750008D869FEFE91AF90AA4CF1E861D8666E3EF
:1007600071E0C9010E94900696CFE1E0CE1AD1084F
:10077000E108F108F8EE4F0EF3E05F1E611C711CFA
:10078000C114D104E104F10461F00E948A016419EA
:10079000750986099709683E73408105910528F718
:1007A000F4CF89859A85009711F00E944105A11424
:1007B000B10409F454CF0E94E700882309F44FCF15
:1007C0000E9400004CCF4FE050E064E271E081E411
:1007D00091E00E947D004D855E8569857A8581E482
:1007E00091E00E947D0042E050E064E371E081E42A
:1007F00091E00E947D000E948A012B013C0184EF60
:10080000C82EDD24D394E12CF12CBFCFE1E4F1E03C
:100810001382128288EE93E0A0E0B0E08483958397
:10082000A683B7838AE091E09183808385EC90E092
:100830009587848784EC90E09787868780EC90E0AA
:10084000918B808B81EC90E0938B828B82EC90E09B
:10085000958B848B86EC90E0978B868B118E128E15
:10086000138E148E0895BB274A3031F4992322F455
:10087000BDE2909581959F4F0C943F04BB27FB01EF
:100880005527AA27880F991FAA1FA41710F0A41B89
:1008900083955051B9F7A05DAA3308F0A95DA193E3
:1008A000009779F7B111B1931192CB010C945804D0
:1008B000DC01FC01672F71917723E1F7329704C0C7
:1008C0007C916D9370836291AE17BF07C8F3089552
:1008D0002F923F924F925F926F927F928F929F9250
:1008E000AF92BF92CF92DF92EF92FF920F931F933E
:1008F000CF93DF93CDB7DEB7CA1BDB0B0FB6F894EF
:10090000DEBF0FBECDBF09942A88398848885F842E
:100910006E847D848C849B84AA84B984C884DF809F
:10092000EE80FD800C811B81AA81B981CE0FD11D83
:100930000FB6F894DEBF0FBECDBFED010895EE0FE8
:10094000FF1F0590F491E02D09940F931F93CF930F
:10095000DF938230910510F482E090E0E091E001B5
:10096000F091E10130E020E0B0E0A0E0309799F4B0
:100970002115310509F44AC0281B390B24303105F3
:10098000D8F58A819B816115710589F1FB019383FB
:100990008283FE0111C04081518102811381481779
:1009A0005907E0F04817590799F4109761F012962B
:1009B0000C93129713961C933296CF01DF91CF912F
:1009C0001F910F9108950093E0011093E101F4CF7E
:1009D0002115310551F04217530738F0A901DB0109
:1009E0009A01BD01DF01F801C1CFEF01F9CF90936A
:1009F000E1018093E001CDCFFE01E20FF31F81936F
:100A000091932250310939832883D7CF2091DE0179
:100A10003091DF01232B41F4209102013091030139
:100A20003093DF012093DE0120910001309101011C
:100A30002115310541F42DB73EB740910401509185
:100A40000501241B350BE091DE01F091DF01E21777
:100A5000F307A0F42E1B3F0B2817390778F0AC01E1
:100A60004E5F5F4F2417350748F04E0F5F1F5093BE
:100A7000DF014093DE01819391939FCFF0E0E0E0AE
:100A80009CCFCF93DF930097E9F0FC01329713825C
:100A90001282A091E001B091E101ED0130E020E08F
:100AA0001097A1F420813181820F931F2091DE01E4
:100AB0003091DF012817390709F061C0F093DF0199
:100AC000E093DE01DF91CF910895EA01CE17DF07B1
:100AD000E8F54A815B819E0141155105B1F7E901B5
:100AE000FB83EA8349915991C40FD51FEC17FD0789
:100AF00061F4808191810296840F951FE9019983A9
:100B00008883828193819B838A83F0E0E0E0129660
:100B10008D919C9113970097B9F52D913C91119768
:100B2000CD010296820F931F2091DE013091DF01EB
:100B30002817390739F6309751F51092E1011092D4
:100B4000E001B093DF01A093DE01BCCFD383C28369
:100B500040815181840F951FC817D90761F44E5FFA
:100B60005F4F88819981480F591F518340838A8143
:100B70009B81938382832115310509F0B0CFF093D7
:100B8000E101E093E0019ECFFD01DC01C0CF1382C3
:100B90001282D7CFB0E0A0E0E0EDF5E00C946A045B
:100BA0008C01009751F4CB010E94A5048C01C8016F
:100BB000CDB7DEB7E0E10C948604FC01E60FF71F29
:100BC0009C0122503109E217F30708F49DC0D901B6
:100BD000CD91DC911197C617D70798F0C530D10594
:100BE00030F3CE0104978617970708F3C61BD70B7F
:100BF0002297C193D1936D937C93CF010E944105BD
:100C0000D6CF5B01AC1ABD0A4C018C0E9D1EA09183
:100C1000E001B091E101512C412CF12CE12C109715
:100C200031F58091DE019091DF018815990509F079
:100C30005CC04616570608F058C08091000190919C
:100C40000101009741F48DB79EB740910401509186
:100C50000501841B950BE817F90708F055C0F093C0
:100C6000DF01E093DE01F90171836083A0CF8D91F4
:100C70009C91119712966C90129713967C901397F3
:100C8000A815B90559F56C0142E0C40ED11CCA146F
:100C9000DB0420F1AC014A195B09DA0112961597C1
:100CA00080F06282738251834083D9016D937C937B
:100CB000E114F10471F0D7011396FC93EE931297AF
:100CC00076CF22968C0F9D1FF90191838083F301CB
:100CD000EFCFF093E101E093E00169CF48165906A8
:100CE00008F42C017D01D3019ACFCB010E94A50409
:100CF0007C01009749F0AE01B8010E948706C80147
:100D00000E944105870153CF10E000E050CFFB0166
:100D1000DC0102C001900D9241505040D8F7089577
:100D2000FB01DC0101900D920020E1F70895F89499
:100D3000FFCF0000E2018000000000001D017D00E7
:100D4000AA006A01DB00B900CD000E000F00100000
:100D5000110012003B00C3896368616E74696C6C9A
:0A0D60006F6E203A20000D0A00001B
:107E0000112484B714BE81FFF0D085E080938100F7
:107E100082E08093C00088E18093C10086E0809377
:107E2000C20080E18093C4008EE0C9D0259A86E02C
:107E300020E33CEF91E0309385002093840096BBD3
:107E4000B09BFECF1D9AA8958150A9F7CC24DD24C4
:107E500088248394B5E0AB2EA1E19A2EF3E0BF2EE7
:107E6000A2D0813461F49FD0082FAFD0023811F036
:107E7000013811F484E001C083E08DD089C08234E0
:107E800011F484E103C0853419F485E0A6D080C0E4
:107E9000853579F488D0E82EFF2485D0082F10E0AE
:107EA000102F00270E291F29000F111F8ED06801E7
:107EB0006FC0863521F484E090D080E0DECF843638
:107EC00009F040C070D06FD0082F6DD080E0C81688
:107ED00080E7D80618F4F601B7BEE895C0E0D1E017
:107EE00062D089930C17E1F7F0E0CF16F0E7DF06D8
:107EF00018F0F601B7BEE89568D007B600FCFDCFD4
:107F0000A601A0E0B1E02C9130E011968C91119780
:107F100090E0982F8827822B932B1296FA010C0160
:107F200087BEE89511244E5F5F4FF1E0A038BF0790
:107F300051F7F601A7BEE89507B600FCFDCF97BE46
:107F4000E89526C08437B1F42ED02DD0F82E2BD052
:107F50003CD0F601EF2C8F010F5F1F4F84911BD097
:107F6000EA94F801C1F70894C11CD11CFA94CF0C13
:107F7000D11C0EC0853739F428D08EE10CD085E9AC
:107F80000AD08FE07ACF813511F488E018D01DD067
:107F900080E101D065CF982F8091C00085FFFCCF94
:107FA0009093C60008958091C00087FFFCCF809118
:107FB000C00084FD01C0A8958091C6000895E0E648
:107FC000F0E098E1908380830895EDDF803219F02E
:107FD00088E0F5DFFFCF84E1DECF1F93182FE3DFCA
:107FE0001150E9F7F2DF1F91089580E0E8DFEE27F6
:047FF000FF270994CA
:027FFE00040479
:00000001FF
